:020000020000FC
:020000001AC024
:10003400ADC00FEF07B9AA2408E00EBF0FEF0DBF44
:100044000E942D000E9432000E94E10078940E94D8
:10005400A0000C942B008F938FE084B98F910895A6
:100064002B9800002B9A08952F932A98299828E01A
:10007400B7FD289A00002A9ABB0F2A9800002898F6
:100084002A95B1F7299A29982F9108958040201034
:0C00940008040201FC12111112FC000013
:100140004F935F934FEF4AB94BB940E0F1E0E8E0DD
:100150004083F0E0E8E9D1E0C0E048E055915993F0
:100160004A954030D9F75F914F9108950F93BF930F
:100170000FEF0BB90E943600F0E0E0E90027EA0F2C
:10018000F01FB491BBB90E94F300BF910F91089585
:100190000F93AF93BF930027F1E0E8E0A081F1E077
:1001A000E0E0EA0FF01FB0810E94B600A395A830EE
:1001B000B1F7A0E0F1E0E8E0A083BF91AF910F912B
:1001C00018950F9309E00093890004EC00938800D0
:1001D00000E00093800009E00093810002E00093BA
:1001E0006F000F9108950F93B19BFECF02E006BB05
:0401F0000F910895CE
:00000001FF
