:020000020000FC
:040000000C9410004C
:10001C000C9436000FEF07B9249A00240E941B00A1
:10002C000E94290078940C9419000F9307E001B9F1
:10003C0000E00AB90FE00BB90093730008E00093DD
:10004C0068000F9108950F9300E006BD0DE707BD02
:10005C0004E608BD03EE04BD0BE005BD0F91089549
:10006C000F931F93489B0FC0499B15C04A9909C019
:10007C00129A4B9903C0109A119815C01098119AA6
:10008C0012C0129810C018B506E0100F07B5101763
:10009C0050F418BD08C018B506E0101B07B51017B2
:0C00AC0010F418BD00C01F910F911895B2
:00000001FF
