:020000020000FC
:040000000C94260036
:100034000C946C00C0F9A4B0999282F8809088085E
:10004400010204080403020108E00EBF0FEF0DBF14
:10005400389A409800E0502E08D002E000936F00D8
:100064000E94570078940C9435004F934FEF44B995
:100074004AE043604AB94F9108950F934F93002784
:10008400F0E0E8E3EB0FF01F449145B9589A000003
:100094005898F0E0E4E4EA0FF01F449145B9599A06
:1000A400000059984F910F9108950F9300E0009329
:1000B400850000E0009384000CE9009389000FE3BD
:1000C4000093880000E00093800009E00093810021
:1000D4000F9108950F93AF93BF930027A52DF0E0E0
:1000E400E8E4EA0FF01FB4910E943F00A33009F442
:1000F400AFEFA3955A2EA6B1B1E0AB27A8B9BF9133
:06010400AF910F91189568
:00000001FF
