:020000020000FC
:100000000C940A00C0F9A4B0999282F880908808F4
:100010000E0D0B070FD0A3E0B0E00E9422000E945B
:100020003A00AA95B395AF70AF30B9F7B0E0A3E04E
:100030000C940D004F934FEF44B94AE043604AB926
:100040004F9108950F934F930027F0E0E4E0EB0FFA
:10005000F01F449145B9589A00005898F0E0E0E14B
:10006000EA0FF01F449145B9599A000059984F91F1
:100070000F91089504E606BD00E004BD04E005BD4F
:0E008000A89BFECF00E005BD01E005BB089582
:00000001FF
