:020000020000FC
:020000004BC0F3
:10007C0045582056584C2D41565200004C542E5683
:10008C005920262054542E544F414E000E947D007E
:10009C00F0E0EEE30E946E0001E010E00E945E00D2
:1000AC00F0E0E4E40E946E000CE00E94C400FFCF7C
:1000BC00003031F41F701068012F0E94C4000895A5
:1000CC00013029F41F70106C012F0E94C400089598
:1000DC00FF93EF930F93EE0FFF1F0591003019F074
:1000EC000E94AD00FACF0F91EF91FF91089507EFA9
:1000FC0001B90E94D9000E94D90002E00E94C400FC
:10010C0008E20E94C4000EE00E94C40001E00E94BC
:10011C00C40000E80E94C40008950F9307E001B9E1
:10012C0002EF02B90000129A0000000000B1129810
:10013C000000129A000000001298000000780038AD
:10014C0091F307EF01B900E002B90F9108951F93E5
:10015C000E949300102F107F116012B90000129AA8
:10016C000000129800000295007F007F016002B928
:10017C000000129A000012981F9108951F930E947C
:10018C009300102F107F12B900000000129A00008B
:10019C00000012980295007F02B9129A000000002C
:1001AC0012981F91089540E56AEF00006A95E9F7EF
:0601BC004A95D1F70895F9
:00000001FF
