:020000020000FC
:100000000C9414004C542E565920262054542E542F
:100010004F414E00434F554E5445523A2000303127
:1000200032333435363738390FEF0AB94FE044B937
:100030000E94C3000E94450022240E94560006D060
:10004000FDD08BB9282E0E945600F9CF57EF63E000
:1000500055B900001C9902C080E011C01D9902C072
:1000600081E00DC01E9902C082E009C01F9902C044
:1000700083E005C0603039F057956A95E9CF880F65
:10008000880F860F08958FEF089500E010E00E941A
:100090009300F0E0E2E00E94B40001E010E00E9472
:1000A0009300F0E0EAE00E94B40008951F932F92BD
:1000B000D0E0C22DB0E0A4E620D0572ED0E0C62F6D
:1000C000B0E0AAE01AD0472E362E0BEC0E940901B0
:1000D000252C0E94A3000CEC0E940901242C0E94F4
:1000E000A3000DEC0E940901232C0E94A3000CE048
:1000F0000E9409012F901F910895DF93CF93BF9322
:10010000AF930F939927772700278D2F6C2FCA1B4A
:10011000DB0B1AF07395901FF8CF0F91AF91BF9141
:10012000CF91DF910895003031F41F701068012FD6
:100130000E9409010895013029F41F70106C012FED
:100140000E9409010895FF93EF930F932F92F0E01F
:10015000EEE1E20D2224F21D04910E94F3002F90A3
:100160000F91EF91FF910895FF93EF930F93EE0F8F
:10017000FF1F0591003019F00E94F300FACF0F9194
:10018000EF91FF91089507EF01B90E941E010E94AF
:100190001E0102E00E94090108E20E9409010EE02E
:1001A0000E94090101E00E94090100E80E94090182
:1001B00008950F9307E001B902EF02B90000129A07
:1001C0000000000000B112980000129A0000000028
:1001D000129800000078003891F307EF01B900E0B1
:1001E00002B90F9108951F930E94D900102F107F1C
:1001F000116012B90000129A0000129800000295D6
:10020000007F016002B90000129A000012981F914D
:1002100008951F930E94D900102F107F12B900007B
:100220000000129A0000000012980295007F02B9A7
:10023000129A0000000012981F9108956EE15CEA86
:1002400045E04A95F1F75A95D9F76A95C1F70895AF
:00000001FF
