:020000020000FC
:100000004C542E565920262054542E544F414E0005
:10001000434F554E5445523A200030313233343537
:10002000363738393898409A0FEF0AB910E00BB9D3
:100030000E949B0000E010E00E946B00F0E0E0E016
:100040000E948C0001E010E00E946B00F0E0E8E00C
:100050000E948C0022240E943C0010E03099FECFC8
:1000600003C0309BFECFFACF13951BB9212E0E94FF
:100070003C000E94F600F5CF1F932F92B22DA4E60C
:100080001ED0592EB82FAAE01AD0492E382E0BECCC
:100090000E94E100252C0E947B000CEC0E94E100F4
:1000A000242C0E947B000DEC0E94E100232C0E9476
:1000B0007B000CE00E94E1002F901F910895BF93F8
:1000C000AF93992788278B2FBA1B12F09395FBCFFC
:1000D000AF91BF910895003031F41F701068012F67
:1000E0000E94E1000895013029F41F70106C012F67
:1000F0000E94E1000895FF93EF930F932F92F0E099
:10010000EAE1E20D2224F21D04910E94CB002F901F
:100110000F91EF91FF910895FF93EF930F93EE0FDF
:10012000FF1F0591003019F00E94CB00FACF0F910C
:10013000EF91FF91089507EF01B90E94F6000E9428
:10014000F60002E00E94E10008E20E94E1000EE0F9
:100150000E94E10001E00E94E10000E80E94E1004D
:1001600008950F9307E001B902EF02B90000129A57
:100170000000000000B112980000129A0000000078
:10018000129800000078003891F307EF01B900E001
:1001900002B90F9108951F930E94B100102F107F94
:1001A000116012B90000129A000012980000029526
:1001B000007F016002B90000129A000012981F919E
:1001C00008951F930E94B100102F107F12B90000F4
:1001D0000000129A0000000012980295007F02B9F8
:1001E000129A0000000012981F9108956EE15CEAD7
:1001F00045E04A95F1F75A95D9F76A95C1F7089500
:00000001FF
