:020000020000FC
:100000000C940A00C0F9A4B0999282F880908808F4
:100010000E0D0B074AD080E081B98FEF82B949E01D
:1000200050B15095549F83E0D12DC02DB3E0A8EE80
:100030000E943F00902F0E945D000E94750082E0A8
:10004000D32FC22FB0E0A4E60E943F00902F0E9461
:100050005D000E94750081E0D32FC22FB0E0AAE0BE
:100060000E943F00902F0E945D000E94750080E07A
:10007000922F0E945D000E9475000C940F00DF9388
:10008000CF93BF93AF93AF92AA24112700272C2FB1
:100090003D2FCA1BDB0B1AF003951A1DF8CFAF904A
:1000A000AF91BF91CF91DF9108954F934FEF44B936
:1000B0004AE043604AB94F9108950F934F93002748
:1000C000F0E0E4E0E90FF01F449145B9589A0000D0
:1000D0005898F0E0E0E1E80FF01F449145B9599AD3
:1000E000000059984F910F9108950F9304E606BDB3
:1000F00000E004BD04E005BDA89BFECF00E005BD07
:0801000001E005BB0F91089519
:00000001FF
