:020000020000FC
:020000004DC0F1
:10007C0045582056584C2D415652000047524F556A
:10008C00503A30310000303132333435363738396C
:10009C000E94D100F0E0EEE30E94C20001E010E00B
:1000AC000E94A100F0E0E4E40E94C2000CE00E9477
:1000BC0018014EEB43950E942D010E942D010E94C8
:1000CC002D01C42FDD27A4E6BB271FD0502EC22F35
:1000DC00AAE01BD0402E322E0DEC0E941801F0E04D
:1000EC00E9E4252C0E94B1000EEC0E941801F0E00E
:1000FC00E9E4242C0E94B1000FEC0E941801F0E0FE
:10010C00E9E4232C0E94B100D5CFDF93CF93BF93AA
:10011C00AF93AF92AA24112700272C2F3D2FCA1B77
:10012C00DB0B1AF003951A1DF8CFAF90AF91BF916E
:10013C00CF91DF910895003031F41F701068012FBA
:10014C000E9418010895013029F41F70106C012FC2
:10015C000E9418010895FF93EF930F932F92EE0FC7
:10016C00FF1FE20D2224F21D04910E9401012F9029
:10017C000F91EF91FF910895FF93EF930F93EE0F73
:10018C00FF1F0591003019F00E940101FACF0F9169
:10019C00EF91FF91089507EF01B90E942D010E9484
:1001AC002D0102E00E94180108E20E9418010EE0E5
:1001BC000E94180101E00E94180100E80E94180139
:1001CC0008950F9307E001B902EF02B90000129AEB
:1001DC000000000000B112980000129A000000000C
:1001EC00129800000078003891F307EF01B900E095
:1001FC0002B90F9108951F930E94E700102F107FF2
:10020C00116012B90000129A0000129800000295B9
:10021C00007F007F016002B90000129A0000129862
:10022C001F9108951F930E94E700102F107F12B9A1
:10023C0000000000129A0000000012980295007F46
:10024C0002B9129A0000000012981F9108954F9362
:10025C0040E56AEF00006A95E9F74A95D1F74F91AE
:02026C000895F3
:00000001FF
