:020000020000FC
:100000004C542E565920262054542E544F414E0005
:10001000434F554E5445523A200030313233343537
:10002000363738393898409A0FEF0AB910E00BB9D3
:100030000E94A10000E010E00E947100F0E0E0E00A
:100040000E94920001E010E00E947100F0E0E8E000
:100050000E94920022240E94420010E03099FECFBC
:10006000CBD03099FBCFC8D03099F8CF03C0309BAC
:10007000FECFF4CF13951BB9212E0E9442000E949F
:10008000FC00F5CF1F932F92B22DA4E61ED0592E5F
:10009000B82FAAE01AD0492E382E0BEC0E94E700A8
:1000A000252C0E9481000CEC0E94E700242C0E9469
:1000B00081000DEC0E94E700232C0E9481000CE0DF
:1000C0000E94E7002F901F910895BF93AF93992747
:1000D00088278B2FBA1B12F09395FBCFAF91BF915E
:1000E0000895003031F41F701068012F0E94E7005E
:1000F0000895013029F41F70106C012F0E94E70051
:100100000895FF93EF930F932F92F0E0EAE1E20D51
:100110002224F21D04910E94D1002F900F91EF91A3
:10012000FF910895FF93EF930F93EE0FFF1F05913B
:10013000003019F00E94D100FACF0F91EF91FF919A
:10014000089507EF01B90E94FC000E94FC0002E044
:100150000E94E70008E20E94E7000EE00E94E7002C
:1001600001E00E94E70000E80E94E70008950F9375
:1001700007E001B902EF02B90000129A0000000086
:1001800000B112980000129A0000000012980000BE
:100190000078003891F307EF01B900E002B90F9140
:1001A00008951F930E94B700102F107F116012B99D
:1001B0000000129A0000129800000295007F016072
:1001C00002B90000129A000012981F9108951F931F
:1001D0000E94B700102F107F12B900000000129A81
:1001E0000000000012980295007F02B9129A0000E8
:1001F000000012981F9108956EE15CEA45E04A956F
:0C020000F1F75A95D9F76A95C1F70895F7
:00000001FF
